{
  "contractName": "EFIR",
  "abi": [
    {
      "inputs": [],
      "stateMutability": "nonpayable",
      "type": "constructor"
    },
    {
      "anonymous": false,
      "inputs": [
        {
          "indexed": false,
          "internalType": "uint256",
          "name": "FIRnumber",
          "type": "uint256"
        }
      ],
      "name": "FIRfiled",
      "type": "event"
    },
    {
      "anonymous": false,
      "inputs": [
        {
          "indexed": false,
          "internalType": "uint256",
          "name": "FIRnumber",
          "type": "uint256"
        }
      ],
      "name": "FIRverified",
      "type": "event"
    },
    {
      "inputs": [
        {
          "internalType": "uint256",
          "name": "",
          "type": "uint256"
        }
      ],
      "name": "FIRdetails",
      "outputs": [
        {
          "internalType": "uint256",
          "name": "FIRnumber",
          "type": "uint256"
        },
        {
          "internalType": "string",
          "name": "objectId",
          "type": "string"
        },
        {
          "internalType": "address",
          "name": "complainantAddress",
          "type": "address"
        },
        {
          "internalType": "string",
          "name": "complainantName",
          "type": "string"
        },
        {
          "internalType": "string",
          "name": "complainantPhone",
          "type": "string"
        },
        {
          "internalType": "string",
          "name": "complainantEmail",
          "type": "string"
        },
        {
          "internalType": "string",
          "name": "FIRdescription",
          "type": "string"
        },
        {
          "internalType": "bool",
          "name": "isFIRfiled",
          "type": "bool"
        },
        {
          "internalType": "bool",
          "name": "isFIRverified",
          "type": "bool"
        },
        {
          "internalType": "address",
          "name": "verifierAddress",
          "type": "address"
        },
        {
          "internalType": "string",
          "name": "verifierName",
          "type": "string"
        },
        {
          "internalType": "uint256",
          "name": "timestamp",
          "type": "uint256"
        }
      ],
      "stateMutability": "view",
      "type": "function",
      "constant": true
    },
    {
      "inputs": [
        {
          "internalType": "address",
          "name": "",
          "type": "address"
        }
      ],
      "name": "authorized",
      "outputs": [
        {
          "internalType": "bool",
          "name": "",
          "type": "bool"
        }
      ],
      "stateMutability": "view",
      "type": "function",
      "constant": true
    },
    {
      "inputs": [],
      "name": "owner",
      "outputs": [
        {
          "internalType": "address",
          "name": "",
          "type": "address"
        }
      ],
      "stateMutability": "view",
      "type": "function",
      "constant": true
    },
    {
      "inputs": [
        {
          "internalType": "address",
          "name": "_address",
          "type": "address"
        }
      ],
      "name": "authorize",
      "outputs": [],
      "stateMutability": "nonpayable",
      "type": "function"
    },
    {
      "inputs": [
        {
          "internalType": "address",
          "name": "_address",
          "type": "address"
        }
      ],
      "name": "revokeAuthorization",
      "outputs": [],
      "stateMutability": "nonpayable",
      "type": "function"
    },
    {
      "inputs": [
        {
          "internalType": "string",
          "name": "_complainantName",
          "type": "string"
        },
        {
          "internalType": "string",
          "name": "_complainantPhone",
          "type": "string"
        },
        {
          "internalType": "string",
          "name": "_complainantEmail",
          "type": "string"
        },
        {
          "internalType": "string",
          "name": "_FIRdescription",
          "type": "string"
        },
        {
          "internalType": "string",
          "name": "_objectId",
          "type": "string"
        }
      ],
      "name": "fileFIR",
      "outputs": [],
      "stateMutability": "nonpayable",
      "type": "function"
    },
    {
      "inputs": [
        {
          "internalType": "uint256",
          "name": "_FIRnumber",
          "type": "uint256"
        }
      ],
      "name": "getFIRDetails",
      "outputs": [
        {
          "components": [
            {
              "internalType": "uint256",
              "name": "FIRnumber",
              "type": "uint256"
            },
            {
              "internalType": "string",
              "name": "objectId",
              "type": "string"
            },
            {
              "internalType": "address",
              "name": "complainantAddress",
              "type": "address"
            },
            {
              "internalType": "string",
              "name": "complainantName",
              "type": "string"
            },
            {
              "internalType": "string",
              "name": "complainantPhone",
              "type": "string"
            },
            {
              "internalType": "string",
              "name": "complainantEmail",
              "type": "string"
            },
            {
              "internalType": "string",
              "name": "FIRdescription",
              "type": "string"
            },
            {
              "internalType": "bool",
              "name": "isFIRfiled",
              "type": "bool"
            },
            {
              "internalType": "bool",
              "name": "isFIRverified",
              "type": "bool"
            },
            {
              "internalType": "address",
              "name": "verifierAddress",
              "type": "address"
            },
            {
              "internalType": "string",
              "name": "verifierName",
              "type": "string"
            },
            {
              "internalType": "uint256",
              "name": "timestamp",
              "type": "uint256"
            }
          ],
          "internalType": "struct EFIR.FIR",
          "name": "",
          "type": "tuple"
        }
      ],
      "stateMutability": "view",
      "type": "function",
      "constant": true
    }
  ],
  "bytecode": "0x60806040526000805534801561001457600080fd5b5033600260006101000a81548173ffffffffffffffffffffffffffffffffffffffff021916908373ffffffffffffffffffffffffffffffffffffffff160217905550611b85806100656000396000f3fe608060405234801561001057600080fd5b506004361061007d5760003560e01c8063b48028e31161005b578063b48028e31461010b578063b6a5d7de14610127578063b918161114610143578063c4bbc415146101735761007d565b806315d129c81461008257806338fe1e11146100bd5780638da5cb5b146100ed575b600080fd5b61009c60048036038101906100979190611070565b61018f565b6040516100b49c9b9a99989796959493929190611198565b60405180910390f35b6100d760048036038101906100d29190611070565b610579565b6040516100e4919061141a565b60405180910390f35b6100f5610a09565b604051610102919061143c565b60405180910390f35b61012560048036038101906101209190611483565b610a2f565b005b610141600480360381019061013c9190611483565b610b6e565b005b61015d60048036038101906101589190611483565b610cad565b60405161016a91906114b0565b60405180910390f35b61018d60048036038101906101889190611600565b610ccd565b005b60016020528060005260406000206000915090508060000154908060010180546101b890611736565b80601f01602080910402602001604051908101604052809291908181526020018280546101e490611736565b80156102315780601f1061020657610100808354040283529160200191610231565b820191906000526020600020905b81548152906001019060200180831161021457829003601f168201915b5050505050908060020160009054906101000a900473ffffffffffffffffffffffffffffffffffffffff169080600301805461026c90611736565b80601f016020809104026020016040519081016040528092919081815260200182805461029890611736565b80156102e55780601f106102ba576101008083540402835291602001916102e5565b820191906000526020600020905b8154815290600101906020018083116102c857829003601f168201915b5050505050908060040180546102fa90611736565b80601f016020809104026020016040519081016040528092919081815260200182805461032690611736565b80156103735780601f1061034857610100808354040283529160200191610373565b820191906000526020600020905b81548152906001019060200180831161035657829003601f168201915b50505050509080600501805461038890611736565b80601f01602080910402602001604051908101604052809291908181526020018280546103b490611736565b80156104015780601f106103d657610100808354040283529160200191610401565b820191906000526020600020905b8154815290600101906020018083116103e457829003601f168201915b50505050509080600601805461041690611736565b80601f016020809104026020016040519081016040528092919081815260200182805461044290611736565b801561048f5780601f106104645761010080835404028352916020019161048f565b820191906000526020600020905b81548152906001019060200180831161047257829003601f168201915b5050505050908060070160009054906101000a900460ff16908060070160019054906101000a900460ff16908060070160029054906101000a900473ffffffffffffffffffffffffffffffffffffffff16908060080180546104f090611736565b80601f016020809104026020016040519081016040528092919081815260200182805461051c90611736565b80156105695780601f1061053e57610100808354040283529160200191610569565b820191906000526020600020905b81548152906001019060200180831161054c57829003601f168201915b505050505090806009015490508c565b610581610f95565b6001600083815260200190815260200160002060405180610180016040529081600082015481526020016001820180546105ba90611736565b80601f01602080910402602001604051908101604052809291908181526020018280546105e690611736565b80156106335780601f1061060857610100808354040283529160200191610633565b820191906000526020600020905b81548152906001019060200180831161061657829003601f168201915b505050505081526020016002820160009054906101000a900473ffffffffffffffffffffffffffffffffffffffff1673ffffffffffffffffffffffffffffffffffffffff1673ffffffffffffffffffffffffffffffffffffffff1681526020016003820180546106a290611736565b80601f01602080910402602001604051908101604052809291908181526020018280546106ce90611736565b801561071b5780601f106106f05761010080835404028352916020019161071b565b820191906000526020600020905b8154815290600101906020018083116106fe57829003601f168201915b5050505050815260200160048201805461073490611736565b80601f016020809104026020016040519081016040528092919081815260200182805461076090611736565b80156107ad5780601f10610782576101008083540402835291602001916107ad565b820191906000526020600020905b81548152906001019060200180831161079057829003601f168201915b505050505081526020016005820180546107c690611736565b80601f01602080910402602001604051908101604052809291908181526020018280546107f290611736565b801561083f5780601f106108145761010080835404028352916020019161083f565b820191906000526020600020905b81548152906001019060200180831161082257829003601f168201915b5050505050815260200160068201805461085890611736565b80601f016020809104026020016040519081016040528092919081815260200182805461088490611736565b80156108d15780601f106108a6576101008083540402835291602001916108d1565b820191906000526020600020905b8154815290600101906020018083116108b457829003601f168201915b505050505081526020016007820160009054906101000a900460ff161515151581526020016007820160019054906101000a900460ff161515151581526020016007820160029054906101000a900473ffffffffffffffffffffffffffffffffffffffff1673ffffffffffffffffffffffffffffffffffffffff1673ffffffffffffffffffffffffffffffffffffffff16815260200160088201805461097690611736565b80601f01602080910402602001604051908101604052809291908181526020018280546109a290611736565b80156109ef5780601f106109c4576101008083540402835291602001916109ef565b820191906000526020600020905b8154815290600101906020018083116109d257829003601f168201915b505050505081526020016009820154815250509050919050565b600260009054906101000a900473ffffffffffffffffffffffffffffffffffffffff1681565b600260009054906101000a900473ffffffffffffffffffffffffffffffffffffffff1673ffffffffffffffffffffffffffffffffffffffff163373ffffffffffffffffffffffffffffffffffffffff161480610ad45750600360003373ffffffffffffffffffffffffffffffffffffffff1673ffffffffffffffffffffffffffffffffffffffff16815260200190815260200160002060009054906101000a900460ff165b610b13576040517f08c379a0000000000000000000000000000000000000000000000000000000008152600401610b0a906117b3565b60405180910390fd5b6000600360008373ffffffffffffffffffffffffffffffffffffffff1673ffffffffffffffffffffffffffffffffffffffff16815260200190815260200160002060006101000a81548160ff02191690831515021790555050565b600260009054906101000a900473ffffffffffffffffffffffffffffffffffffffff1673ffffffffffffffffffffffffffffffffffffffff163373ffffffffffffffffffffffffffffffffffffffff161480610c135750600360003373ffffffffffffffffffffffffffffffffffffffff1673ffffffffffffffffffffffffffffffffffffffff16815260200190815260200160002060009054906101000a900460ff165b610c52576040517f08c379a0000000000000000000000000000000000000000000000000000000008152600401610c49906117b3565b60405180910390fd5b6001600360008373ffffffffffffffffffffffffffffffffffffffff1673ffffffffffffffffffffffffffffffffffffffff16815260200190815260200160002060006101000a81548160ff02191690831515021790555050565b60036020528060005260406000206000915054906101000a900460ff1681565b600060016000805481526020019081526020016000206000015414610d27576040517f08c379a0000000000000000000000000000000000000000000000000000000008152600401610d1e9061181f565b60405180910390fd5b60405180610180016040528060005481526020018281526020013373ffffffffffffffffffffffffffffffffffffffff168152602001868152602001858152602001848152602001838152602001600115158152602001600015158152602001600073ffffffffffffffffffffffffffffffffffffffff168152602001604051806020016040528060008152508152602001428152506001600080548152602001908152602001600020600082015181600001556020820151816001019081610df091906119eb565b5060408201518160020160006101000a81548173ffffffffffffffffffffffffffffffffffffffff021916908373ffffffffffffffffffffffffffffffffffffffff1602179055506060820151816003019081610e4d91906119eb565b506080820151816004019081610e6391906119eb565b5060a0820151816005019081610e7991906119eb565b5060c0820151816006019081610e8f91906119eb565b5060e08201518160070160006101000a81548160ff0219169083151502179055506101008201518160070160016101000a81548160ff0219169083151502179055506101208201518160070160026101000a81548173ffffffffffffffffffffffffffffffffffffffff021916908373ffffffffffffffffffffffffffffffffffffffff160217905550610140820151816008019081610f2f91906119eb565b5061016082015181600901559050507fc3ef866bec8b73b7dd030c85d89ad569c67f5aa018f4107cc74c56ad9294473b600054604051610f6f9190611abd565b60405180910390a1600080815480929190610f8990611b07565b91905055505050505050565b6040518061018001604052806000815260200160608152602001600073ffffffffffffffffffffffffffffffffffffffff16815260200160608152602001606081526020016060815260200160608152602001600015158152602001600015158152602001600073ffffffffffffffffffffffffffffffffffffffff16815260200160608152602001600081525090565b6000604051905090565b600080fd5b600080fd5b6000819050919050565b61104d8161103a565b811461105857600080fd5b50565b60008135905061106a81611044565b92915050565b60006020828403121561108657611085611030565b5b60006110948482850161105b565b91505092915050565b6110a68161103a565b82525050565b600081519050919050565b600082825260208201905092915050565b60005b838110156110e65780820151818401526020810190506110cb565b60008484015250505050565b6000601f19601f8301169050919050565b600061110e826110ac565b61111881856110b7565b93506111288185602086016110c8565b611131816110f2565b840191505092915050565b600073ffffffffffffffffffffffffffffffffffffffff82169050919050565b60006111678261113c565b9050919050565b6111778161115c565b82525050565b60008115159050919050565b6111928161117d565b82525050565b6000610180820190506111ae600083018f61109d565b81810360208301526111c0818e611103565b90506111cf604083018d61116e565b81810360608301526111e1818c611103565b905081810360808301526111f5818b611103565b905081810360a0830152611209818a611103565b905081810360c083015261121d8189611103565b905061122c60e0830188611189565b61123a610100830187611189565b61124861012083018661116e565b81810361014083015261125b8185611103565b905061126b61016083018461109d565b9d9c50505050505050505050505050565b6112858161103a565b82525050565b600082825260208201905092915050565b60006112a7826110ac565b6112b1818561128b565b93506112c18185602086016110c8565b6112ca816110f2565b840191505092915050565b6112de8161115c565b82525050565b6112ed8161117d565b82525050565b60006101808301600083015161130c600086018261127c565b5060208301518482036020860152611324828261129c565b915050604083015161133960408601826112d5565b5060608301518482036060860152611351828261129c565b9150506080830151848203608086015261136b828261129c565b91505060a083015184820360a0860152611385828261129c565b91505060c083015184820360c086015261139f828261129c565b91505060e08301516113b460e08601826112e4565b506101008301516113c96101008601826112e4565b506101208301516113de6101208601826112d5565b506101408301518482036101408601526113f8828261129c565b91505061016083015161140f61016086018261127c565b508091505092915050565b6000602082019050818103600083015261143481846112f3565b905092915050565b6000602082019050611451600083018461116e565b92915050565b6114608161115c565b811461146b57600080fd5b50565b60008135905061147d81611457565b92915050565b60006020828403121561149957611498611030565b5b60006114a78482850161146e565b91505092915050565b60006020820190506114c56000830184611189565b92915050565b600080fd5b600080fd5b7f4e487b7100000000000000000000000000000000000000000000000000000000600052604160045260246000fd5b61150d826110f2565b810181811067ffffffffffffffff8211171561152c5761152b6114d5565b5b80604052505050565b600061153f611026565b905061154b8282611504565b919050565b600067ffffffffffffffff82111561156b5761156a6114d5565b5b611574826110f2565b9050602081019050919050565b82818337600083830152505050565b60006115a361159e84611550565b611535565b9050828152602081018484840111156115bf576115be6114d0565b5b6115ca848285611581565b509392505050565b600082601f8301126115e7576115e66114cb565b5b81356115f7848260208601611590565b91505092915050565b600080600080600060a0868803121561161c5761161b611030565b5b600086013567ffffffffffffffff81111561163a57611639611035565b5b611646888289016115d2565b955050602086013567ffffffffffffffff81111561166757611666611035565b5b611673888289016115d2565b945050604086013567ffffffffffffffff81111561169457611693611035565b5b6116a0888289016115d2565b935050606086013567ffffffffffffffff8111156116c1576116c0611035565b5b6116cd888289016115d2565b925050608086013567ffffffffffffffff8111156116ee576116ed611035565b5b6116fa888289016115d2565b9150509295509295909350565b7f4e487b7100000000000000000000000000000000000000000000000000000000600052602260045260246000fd5b6000600282049050600182168061174e57607f821691505b60208210810361176157611760611707565b5b50919050565b7f4e6f7420617574686f72697a6564000000000000000000000000000000000000600082015250565b600061179d600e836110b7565b91506117a882611767565b602082019050919050565b600060208201905081810360008301526117cc81611790565b9050919050565b7f464952206e756d62657220616c72656164792065786973747300000000000000600082015250565b60006118096019836110b7565b9150611814826117d3565b602082019050919050565b60006020820190508181036000830152611838816117fc565b9050919050565b60008190508160005260206000209050919050565b60006020601f8301049050919050565b600082821b905092915050565b6000600883026118a17fffffffffffffffffffffffffffffffffffffffffffffffffffffffffffffffff82611864565b6118ab8683611864565b95508019841693508086168417925050509392505050565b6000819050919050565b60006118e86118e36118de8461103a565b6118c3565b61103a565b9050919050565b6000819050919050565b611902836118cd565b61191661190e826118ef565b848454611871565b825550505050565b600090565b61192b61191e565b6119368184846118f9565b505050565b5b8181101561195a5761194f600082611923565b60018101905061193c565b5050565b601f82111561199f576119708161183f565b61197984611854565b81016020851015611988578190505b61199c61199485611854565b83018261193b565b50505b505050565b600082821c905092915050565b60006119c2600019846008026119a4565b1980831691505092915050565b60006119db83836119b1565b9150826002028217905092915050565b6119f4826110ac565b67ffffffffffffffff811115611a0d57611a0c6114d5565b5b611a178254611736565b611a2282828561195e565b600060209050601f831160018114611a555760008415611a43578287015190505b611a4d85826119cf565b865550611ab5565b601f198416611a638661183f565b60005b82811015611a8b57848901518255600182019150602085019450602081019050611a66565b86831015611aa85784890151611aa4601f8916826119b1565b8355505b6001600288020188555050505b505050505050565b6000602082019050611ad2600083018461109d565b92915050565b7f4e487b7100000000000000000000000000000000000000000000000000000000600052601160045260246000fd5b6000611b128261103a565b91507fffffffffffffffffffffffffffffffffffffffffffffffffffffffffffffffff8203611b4457611b43611ad8565b5b60018201905091905056fea26469706673582212203cd1ee43394c45270f87aa032066838f50dc9bb26a828be88443e12fb2ab6c4864736f6c63430008110033",
  "immutableReferences": {},
  "source": "// E-FIR smart contract\r\n\r\npragma solidity ^0.8.0;\r\n\r\ncontract EFIR {\r\n    \r\n    // Struct to store FIR details\r\n    struct FIR {\r\n        uint256 FIRnumber;\r\n        string objectId;\r\n        address complainantAddress;\r\n        string complainantName;\r\n        string complainantPhone;\r\n        string complainantEmail;\r\n        string FIRdescription;\r\n        bool isFIRfiled;\r\n        bool isFIRverified;\r\n        address verifierAddress;\r\n        string verifierName;\r\n        uint256 timestamp;\r\n    }\r\n\r\n    uint256 FirTracker = 0;\r\n    \r\n    // Mapping to store FIR details by FIR number\r\n    mapping(uint256 => FIR) public FIRdetails;\r\n    \r\n    // Event to emit when a new FIR is filed\r\n    event FIRfiled(uint256 FIRnumber);\r\n    \r\n    // Event to emit when a FIR is verified\r\n    event FIRverified(uint256 FIRnumber);\r\n    \r\n    // Modifier to check if the sender is authorized to access the function\r\n    modifier onlyAuthorized {\r\n        require(msg.sender == owner || authorized[msg.sender], \"Not authorized\");\r\n        _;\r\n    }\r\n    \r\n    // Owner address\r\n    address public owner;\r\n    \r\n    // Mapping to store authorized addresses\r\n    mapping(address => bool) public authorized;\r\n    \r\n    // Constructor to set the owner address\r\n    constructor() {\r\n        owner = msg.sender;\r\n    }\r\n    \r\n    // Function to authorize an address\r\n    function authorize(address _address) public onlyAuthorized {\r\n        authorized[_address] = true;\r\n    }\r\n    \r\n    // Function to revoke authorization of an address\r\n    function revokeAuthorization(address _address) public onlyAuthorized {\r\n        authorized[_address] = false;\r\n    }\r\n    \r\n    // Function to file a new FIR\r\n    function fileFIR(string memory _complainantName, string memory _complainantPhone, \r\n        string memory _complainantEmail, string memory _FIRdescription, string memory _objectId) public {\r\n        \r\n        // Check if FIR number already exists\r\n        require(FIRdetails[FirTracker].FIRnumber == 0, \"FIR number already exists\");\r\n        \r\n        // Add new FIR details\r\n        FIRdetails[FirTracker] = FIR({\r\n            FIRnumber: FirTracker,\r\n            complainantAddress: msg.sender,\r\n            complainantName: _complainantName,\r\n            complainantPhone: _complainantPhone,\r\n            complainantEmail: _complainantEmail,\r\n            FIRdescription: _FIRdescription,\r\n            isFIRfiled: true,\r\n            isFIRverified: false,\r\n            verifierAddress: address(0),\r\n            verifierName: \"\",\r\n            timestamp: block.timestamp,\r\n            objectId: _objectId\r\n        });\r\n        \r\n        // Emit FIRfiled event\r\n        emit FIRfiled(FirTracker);\r\n        FirTracker++;\r\n    }\r\n    \r\n    // // Function to verify a FIR\r\n    // function verifyFIR(uint256 _FIRnumber, address _verifierAddress, string memory _verifierName) public onlyAuthorized {\r\n        \r\n    //     // Check if FIR number exists and is not already verified\r\n    //     require(FIRdetails[_FIRnumber].FIRnumber != 0, \"FIR number does not exist\");\r\n    //     require(!FIRdetails[_FIRnumber].isFIRverified, \"FIR already verified\");\r\n        \r\n    //     // Update FIR details\r\n    //     FIRdetails[_FIRnumber].isFIRverified = true;\r\n    //     FIRdetails[_FIRnumber].verifierAddress = _verifierAddress;\r\n    //     FIRdetails[_FIRnumber].verifierName = _verifierName;\r\n        \r\n    //     // Emit FIRverified event\r\n    //     emit FIRverified(_FIRnumber);\r\n    // }\r\n\r\n    // Function to get FIR details by FIR number\r\n    function getFIRDetails(uint256 _FIRnumber) public view returns(FIR memory){\r\n        return FIRdetails[_FIRnumber];\r\n    }\r\n}\r\n    \r\n    \r\n",
  "sourcePath": "C:\\Users\\Siddhesh\\Desktop\\Land Registration tosend\\contracts\\smartfir.sol",
  "compiler": {
    "name": "solc",
    "version": "0.8.17+commit.8df45f5f.Emscripten.clang"
  },
  "schemaVersion": "3.4.13",
  "updatedAt": "2023-04-28T17:09:41.059Z",
  "networkType": "ethereum",
  "devdoc": {
    "kind": "dev",
    "methods": {},
    "version": 1
  },
  "userdoc": {
    "kind": "user",
    "methods": {},
    "version": 1
  }
}